:040000000DEF00F010
:04000800F4EF21F000
:06001800FF0097EF21F04C
:102500000002400003003C6C3636CF0750B9848887
:10251000083CABAA2ABEA3858832DA0FC93F83F9EB
:10252000223F0000003F0000404B179ACC373F0489
:10253000B6BA9FAA2A3D000000BFDB0FC940E4CB1A
:0B2540009640DB0F4940DB0FC93F0055
:10254C00A0C5A8F5A1C5A9F5A2C5AAF5A3C5ABF56B
:10255C00A8C5BEF5A9C5BFF5AAC5C0F5ABC5C1F5E3
:10256C00BEC54BF5BFC54CF5C0C54DF5C1C54EF547
:10257C00200EC6EF12F0D8904E324D324C324B3208
:10258C00E82EC1EF12F04BC5B4F54CC5B5F50501FD
:10259C00C19FDB0EBE5D0F0EBF59490EC0593F0ED9
:1025AC00C159D8B0DCEF12F0DEEF12F007EF13F0E8
:1025BC00800EC05D390EC159D8B0E7EF12F0E9EFCB
:1025CC0012F0F3EF12F0A0C5A0F5A1C5A1F5A2C5BC
:1025DC00A2F5A3C5A3F582EF15F0A0C57CF5A1C5A6
:1025EC007DF5A2C57EF5A3C57FF576EC1CF07CC508
:1025FC00A0F57DC5A1F57EC5A2F57FC5A3F582EF3B
:10260C0015F0D20EBE5D530EBF597B0EC059400E55
:10261C00C159D8B014EF13F016EF13F0FBEF13F011
:10262C00E40EBE5DCB0EBF59160EC059400EC159FB
:10263C00D8B023EF13F025EF13F094EF13F0B4514F
:10264C00B511D8B42CEF13F02EEF13F066EF13F096
:10265C00DB0E316E0F0E326EC90E336E3F0E346EC2
:10266C00A0C52DF5A1C52EF5A2C52FF5A3C530F536
:10267C00EFEC17F02DC5B6F52EC5B7F52FC5B8F58F
:10268C0030C5B9F5B6C53DF5B7C53EF5B8C53FF58E
:10269C00B9C540F58FEC1DF03DC578F53EC579F513
:1026AC003FC57AF540C57BF5D7EC21F078C5A0F590
:1026BC0079C5A1F57AC5A2F57BC5A3F582EF15F016
:1026CC00A0C52DF5A1C52EF5A2C52FF5A3C530F5D6
:1026DC00DB0E316E0F0E326EC90E336EBF0E346EC2
:1026EC00EFEC17F02DC5B6F52EC5B7F52FC5B8F51F
:1026FC0030C5B9F5B6C53DF5B7C53EF5B8C53FF51E
:10270C00B9C540F58FEC1DF03DC5A0F53EC5A1F552
:10271C003FC5A2F540C5A3F582EF15F0B451B51134
:10272C00D8A49BEF13F09DEF13F0C3EF13F0DB0E67
:10273C00316E0F0E326E490E336EC00E346EA0C564
:10274C002DF5A1C52EF5A2C52FF5A3C530F5EFECDF
:10275C0017F02DC578F52EC579F52FC57AF530C54E
:10276C007BF5D7EC21F078C5ACF579C5ADF57AC51C
:10277C00AEF57BC5AFF5E7EF13F0DB0E316E0F0E48
:10278C00326E490E336E400E346EA0C52DF5A1C5C8
:10279C002EF5A2C52FF5A3C530F5EFEC17F02DC51E
:1027AC0078F52EC579F52FC57AF530C57BF5D7ECC4
:1027BC0021F078C5ACF579C5ADF57AC5AEF57BC51C
:1027CC00AFF5ACC57CF5ADC57DF5AEC57EF5AFC539
:1027DC007FF576EC1CF07CC5A0F57DC5A1F57EC51A
:1027EC00A2F57FC5A3F582EF15F0D60EBE5D310EB6
:1027FC00BF59E20EC059400EC159D8B008EF14F0C1
:10280C000AEF14F0ADEF14F0E00EBE5DED0EBF5903
:10281C00AF0EC059400EC159D8B017EF14F019EFD4
:10282C0014F05AEF14F0B451B511D8B420EF14F0E1
:10283C0022EF14F03EEF14F0A0C52DF5A1C52EF536
:10284C00A2C52FF5A3C530F5E40E316ECB0E326E5A
:10285C00960E336E400E346EEFEC17F02DC5B6F5B8
:10286C002EC5B7F52FC5B8F530C5B9F580EF13F007
:10287C00E40E316ECB0E326E960E336EC00E346E8D
:10288C00A0C52DF5A1C52EF5A2C52FF5A3C530F514
:10289C00EFEC17F02DC5B6F52EC5B7F52FC5B8F56D
:1028AC0030C5B9F548EF13F0B451B511D8A461EFA8
:1028BC0014F063EF14F07FEF14F0A0C52DF5A1C553
:1028CC002EF5A2C52FF5A3C530F5DB0E316E0F0E1C
:1028DC00326EC90E336EC00E346EEFEC17F02DC590
:1028EC00B0F52EC5B1F52FC5B2F530C5B3F599EFDE
:1028FC0014F0A0C52DF5A1C52EF5A2C52FF5A3C5C5
:10290C0030F5DB0E316E0F0E326EC90E336E400E8B
:10291C00346EEFEC17F02DC5B0F52EC5B1F52FC503
:10292C00B2F530C5B3F5B0C57CF5B1C57DF5B2C512
:10293C007EF5B3C57FF576EC1CF07CC5A0F57DC5A6
:10294C00A1F57EC5A2F57FC5A3F582EF15F0800E2B
:10295C00C05D7F0EC159D8A0B6EF14F0B8EF14F0DB
:10296C00D4EF14F0A0C53DF5A1C53EF5A2C53FF5C9
:10297C00A3C540F5A0C541F5A1C542F5A2C543F5D7
:10298C00A3C544F574EC21F03DC5A0F53EC5A1F5F9
:10299C003FC5A2F540C5A3F582EF15F0A0C57CF5A7
:1029AC00A1C57DF5A2C57EF5A3C57FF5BA0E806FD6
:1029BC00050E816F83EC15F005017CC5A4F57DC572
:1029CC00A5F5000EA5BFFF0EA66FA76F52EF15F071
:1029DC00BAC57CF5BBC57DF5BCC57EF5BDC57FF51F
:1029EC0076EC1CF07CC5A0F57DC5A1F57EC5A2F5E5
:1029FC007FC5A3F582EF15F0BAC53DF5BBC53EF515
:102A0C00BCC53FF5BDC540F58FEC1DF03DC5A0F52F
:102A1C003EC5A1F53FC5A2F540C5A3F582EF15F063
:102A2C00BAC578F5BBC579F5BCC57AF5BDC57BF5DE
:102A3C00D7EC21F078C57CF579C57DF57AC57EF5A6
:102A4C007BC57FF576EC1CF07CC5A0F57DC5A1F5AA
:102A5C007EC5A2F57FC5A3F582EF15F0BAC53DF58D
:102A6C00BBC53EF5BCC53FF5BDC540F58FEC1DF0B3
:102A7C003DC578F53EC579F53FC57AF540C57BF582
:102A8C00D7EC21F078C5A0F579C5A1F57AC5A2F5EA
:102A9C007BC5A3F582EF15F0030EA4154B6E000E4B
:102AAC00A5154C6E000EA6154D6E000EA7154E6E9C
:102ABC004E50000AD8B47BEF15F034EF15F04C50A3
:102ACC00000AD8B46CEF15F034EF15F04B50000A37
:102ADC00D8B4EEEF14F0010AD8B402EF15F0030AE3
:102AEC00D8B416EF15F034EF15F04D50000AD8B4E9
:102AFC0065EF15F034EF15F01200CEC58CF5CFC58F
:102B0C008DF5D0C58EF5D1C58FF57CC58CF57DC501
:102B1C008DF57EC58EF57FC58FF58CC547F58DC5BA
:102B2C0048F58EC549F58FC54AF5200EA3EF15F073
:102B3C00D8904A32493248324732E82E9EEF15F08F
:102B4C0047C58AF548C58BF5FF0E05018C15866FB8
:102B5C00FF0E8D15876FFF0E8E15886F7F0E8F15EC
:102B6C00896F800E885D7F0E8959D8A0C0EF15F053
:102B7C00C2EF15F0EDEF15F07CC53DF57DC53EF5CA
:102B8C007EC53FF57FC540F57CC541F57DC542F559
:102B9C007EC543F57FC544F574EC21F0610000F669
:102BAC00D9F4610004F6DAF46100F4F4DEF46100A7
:102BBC00F8F4DEF46100FCF4DEF4610000F5DEF400
:102BCC00000E05017D6F000E7C6FEEEF17F0DB0E33
:102BDC00865D0F0E8759C90E88594D0E8959D8B08C
:102BEC00FAEF15F0FCEF15F0FEEF16F07CC506F5CC
:102BFC007DC507F57EC508F57FC509F511EC22F0FA
:102C0C0006C598F507C599F508C59AF509C59BF54C
:102C1C00000E316E000E326E000E336E3F0E346EAF
:102C2C00830E186EF90E196E220E1A6E3F0E1B6E65
:102C3C0098C514F599C515F59AC516F59BC517F5E4
:102C4C004FEC1AF014C52DF515C52EF516C52FF53C
:102C5C0017C530F5EFEC17F02DC53DF52EC53EF53B
:102C6C002FC53FF530C540F5FDEC1FF03DC59CF57B
:102C7C003EC59DF53FC59EF540C59FF59CC506F527
:102C8C009DC507F59EC508F59FC509F5010E8EEC8F
:102C9C001EF006C594F507C595F508C596F509C54A
:102CAC0097F5DA0E186E0F0E196EC90E1A6E3F0ECE
:102CBC001B6E94C514F595C515F596C516F597C5F7
:102CCC0017F54FEC1AF014C541F515C542F516C5AC
:102CDC0043F517C544F598C53DF599C53EF59AC51C
:102CEC003FF59BC540F574EC21F03DC590F53EC514
:102CFC0091F53FC592F540C593F590C53DF591C54D
:102D0C003EF592C53FF593C540F5A30E186E850EA2
:102D1C00196E880E1A6E320E1B6E94C514F595C57D
:102D2C0015F596C516F597C517F54FEC1AF014C5A1
:102D3C0041F515C542F516C543F517C544F574ECB8
:102D4C0021F0610000F6D9F4610004F6DAF46100B8
:102D5C00F4F4DEF46100F8F4DEF46100FCF4DEF46B
:102D6C00610000F5DEF405018A518B11D8B4C1EF76
:102D7C0016F0C3EF16F0F8EF16F0610000F6D9F478
:102D8C00610004F6DAF4610078F378F5610078F309
:102D9C0079F5610078F37AF5610078F37BF5D7EC7F
:102DAC0021F0610000F6D9F4610004F6DAF40501B3
:102DBC006100E0F5DEF46100E4F5DEF46100E8F5B5
:102DCC00DEF46100ECF5DEF49CC547F59DC548F5D5
:102DDC00471E481E474A482A47C57CF548C57DF51D
:102DEC00EEEF17F09CC57CF59DC57DF5EEEF17F069
:102DFC007CC506F57DC507F57EC508F57FC509F5CB
:102E0C0011EC22F006C598F507C599F508C59AF599
:102E1C0009C59BF5000E316E000E326E000E336E3E
:102E2C003F0E346E830E186EF90E196E220E1A6E4A
:102E3C003F0E1B6E98C514F599C515F59AC516F578
:102E4C009BC517F54FEC1AF014C52DF515C52EF5CD
:102E5C0016C52FF517C530F5EFEC17F02DC53DF560
:102E6C002EC53EF52FC53FF530C540F5FDEC1FF0E6
:102E7C003DC59CF53EC59DF53FC59EF540C59FF5EE
:102E8C009CC506F59DC507F59EC508F59FC509F5BA
:102E9C00010E8EEC1EF006C594F507C595F508C518
:102EAC0096F509C597F5DA0E186E0F0E196EC90E48
:102EBC001A6E3F0E1B6E94C514F595C515F596C587
:102ECC0016F597C517F54FEC1AF014C541F515C555
:102EDC0042F516C543F517C544F598C53DF599C59A
:102EEC003EF59AC53FF59BC540F574EC21F03DC508
:102EFC0090F53EC591F53FC592F540C593F590C54B
:102F0C003DF591C53EF592C53FF593C540F5A30E31
:102F1C00186E850E196E880E1A6E320E1B6E94C5C5
:102F2C0014F595C515F596C516F597C517F54FEC1F
:102F3C001AF014C541F515C542F516C543F517C56C
:102F4C0044F574EC21F03DC582F53EC583F53FC5D3
:102F5C0084F540C585F505018A518B11D8B4B9EFBC
:102F6C0017F0BBEF17F0DAEF17F082C578F583C5D1
:102F7C0079F584C57AF585C57BF5D7EC21F0610030
:102F8C0000F6D9F4610004F6DAF405016100E0F50D
:102F9C00DEF46100E4F5DEF46100E8F5DEF46100D6
:102FAC00ECF5DEF4EAEF16F0610000F6D9F46100FE
:102FBC0004F6DAF4610008F6DEF461000CF6DEF4D7
:102FCC00610010F6DEF4610014F6DEF4F8EF16F092
:102FDC0012003050800B396E305030243B6E2FAEC7
:102FEC00FAEF17F0FCEF17F0FDEF17F03B803B50BA
:102FFC00D8B403EF18F005EF18F01AEF18F03B28CF
:10300C00D8A40BEF18F00DEF18F015EF18F0000E18
:10301C002D6E000E2E6E000E2F6E000E306E2F8E4B
:10302C00000E306E22EF18F0000E2D6E000E2E6E7C
:10303C00000E2F6E000E306E3450800B3A6E3950ED
:10304C003A18D8B42CEF18F02EEF18F02FEF18F028
:10305C00398C345034243A6E33AE37EF18F039EFE4
:10306C0018F03AEF18F03A803A50D8B440EF18F014
:10307C0042EF18F057EF18F03A28D8A448EF18F0A0
:10308C004AEF18F052EF18F0000E316E000E326E4F
:10309C00000E336E000E346E338E000E346E5FEF06
:1030AC0018F0000E316E000E326E000E336E000EF4
:1030BC00346E3B503A5CD8B066EF18F068EF18F0FD
:1030CC008FEF18F039AC6DEF18F06FEF18F071EF5F
:1030DC0018F0800E391A3BC53CF53AC53BF53CC59A
:1030EC003AF52DC53CF531C52DF53CC531F52EC550
:1030FC003CF532C52EF53CC532F52FC53CF533C534
:10310C002FF53CC533F530C53CF534C530F53CC521
:10311C0034F5000E3C6E3B503AC535F5366A355EDB
:10312C00000E365A36BEA4EF18F0365009E11A0ECE
:10313C00355CD8A0A4EF18F0A6EF18F0DDEF18F06E
:10314C002D502E102F103010D8A4AFEF18F0B2EF76
:10315C0018F0010EB3EF18F0000E3C6E000E2D6E41
:10316C00000E2E6E000E2F6E000E306E3AC53BF523
:10317C00E6EF18F03CA0C5EF18F0C7EF18F0CDEF54
:10318C0018F0D8903C3001093C6ECFEF18F0D89075
:10319C003C322DA0D4EF18F0D6EF18F0D7EF18F082
:1031AC003C8E303430322F322E322D323B2A3A5074
:1031BC003B5CD8A0E4EF18F0E6EF18F0C0EF18F085
:1031CC0039BCEBEF18F0EDEF18F02DEF19F03B5088
:1031DC00D8A4F3EF18F0F5EF18F0FFEF18F0000E8D
:1031EC002D6E000E2E6E000E2F6E000E306E4EEFFA
:1031FC001AF031502D2632502E2233502F223450BB
:10320C00302230A00CEF19F00EEF19F0BAEF19F0D4
:10321C003CA013EF19F015EF19F01BEF19F0D89033
:10322C003C3001093C6E1DEF19F0D8903C322DA0BA
:10323C0022EF19F024EF19F025EF19F03C8E303401
:10324C0030322F322E322D323B2ABAEF19F0315058
:10325C002D5C32502E5833502F583050800A356E1A
:10326C003450800A3558D8B03EEF19F040EF19F0C1
:10327C006BEF19F02D50315C356E2E503258366E86
:10328C002F503358376E30503458386EFF0E35246B
:10329C002D6EFF0E36202E6EFF0E37202F6EFF0E7A
:1032AC003820306E800E391A3C6C3C50D8A461EF3B
:1032BC0019F063EF19F073EF19F0010E2D26000EC3
:1032CC002E222F22302273EF19F031502D5E325006
:1032DC002E5A33502F5A3450305A2D502E102F1046
:1032EC003010D8A47CEF19F07EEF19F0B3EF19F081
:1032FC003C50D8A484EF19F086EF19F0B3EF19F015
:10330C00000E2D6E000E2E6E000E2F6E000E306E07
:10331C004EEF1AF0D8902D362E362F3630363CAE76
:10332C009AEF19F09CEF19F09DEF19F02D803CA04D
:10333C00A2EF19F0A4EF19F0A8EF19F0D8803C36E1
:10334C00AAEF19F0D8903C363B50D8B4B0EF19F036
:10335C00B2EF19F0B3EF19F03B062FAEB8EF19F03E
:10336C00BAEF19F090EF19F0000E3A6E3CAEC1EFC7
:10337C0019F0C3EF19F0DBEF19F03CC535F57F0EF2
:10338C003516D8B4CCEF19F0CEEF19F0D2EF19F006
:10339C00010E3A6EDBEF19F02DA0D7EF19F0D9EF33
:1033AC0019F0DBEF19F0CEEF19F03A50D8B4E1EF89
:1033BC0019F0E3EF19F00EEF1AF0010E2D26000EA6
:1033CC002E222F22302230A0EEEF19F0F0EF19F060
:1033DC000EEF1AF02DC535F52EC536F52FC537F580
:1033EC0030C538F53834383237323632353235C5A7
:1033FC002DF536C52EF537C52FF538C530F53B28DC
:10340C00D8B40BEF1AF00DEF1AF00EEF1AF03B2AAE
:10341C003B28D8B414EF1AF016EF1AF01EEF1AF07E
:10342C003B50D8A41CEF1AF01EEF1AF030EF1AF034
:10343C00000E2D6E000E2E6E000E2F6E000E306ED6
:10344C003B50D8A42CEF1AF02EEF1AF030EF1AF0F4
:10345C00000E396E3BA035EF1AF037EF1AF03AEF49
:10346C001AF02F8E3BEF1AF02F9ED8903B30306E17
:10347C0039AE43EF1AF045EF1AF046EF1AF0308EE2
:10348C002DC52DF52EC52EF52FC52FF530C530F5D4
:10349C0012001750800B206E17501724266E16AE94
:1034AC005AEF1AF05CEF1AF05DEF1AF026802650F6
:1034BC00D8B463EF1AF065EF1AF078EF1AF02628FB
:1034CC00D8A46BEF1AF06DEF1AF075EF1AF0000E2E
:1034DC00146E000E156E000E166E000E176E168E04
:1034EC0080EF1AF0000E146E000E156E000E166EA4
:1034FC00000E176E1B50800B201A1B501B24216EC4
:10350C001AAE8BEF1AF08DEF1AF08EEF1AF02180B5
:10351C002150D8B494EF1AF096EF1AF0A9EF1AF0E4
:10352C002128D8A49CEF1AF09EEF1AF0A6EF1AF0FF
:10353C00000E186E000E196E000E1A6E000E1B6E29
:10354C001A8EB1EF1AF0000E186E000E196E000EE6
:10355C001A6E000E1B6E2150D8B4B7EF1AF0B9EFEB
:10356C001AF0C1EF1AF02650D8A4BFEF1AF0C1EF31
:10357C001AF0CBEF1AF0000E146E000E156E000E42
:10358C00166E000E176E75EF1CF01A5014026100C7
:10359C00CCF32BF56100D0F32CF52B50226E236A63
:1035AC00246A256A2C50276E286A296A2A6A1950BF
:1035BC0015026100CCF32BF56100D0F32CF52B50E8
:1035CC002226000E2322242225222C502726000EF0
:1035DC00282229222A22185016026100CCF32BF53E
:1035EC006100D0F32CF52B502226000E232224222E
:1035FC0025222C502726000E282229222A2224C5D7
:10360C0025F523C524F522C523F5226A1850150289
:10361C006100CCF32BF56100D0F32CF52B50222656
:10362C002C502322000E2422000E252219501402A5
:10363C006100CCF32BF56100D0F32CF52B50222636
:10364C002C502322000E2422000E252224C525F501
:10365C0023C524F522C523F5226A185014026100F3
:10366C00CCF32BF56100D0F32CF52B5022262C50EB
:10367C002322000E2422000E25221A50150261006E
:10368C00CCF32BF56100D0F32CF52B5027262C50C6
:10369C002822000E2922000E2A221950160261003F
:1036AC00CCF32BF56100D0F32CF52B5027262C50A6
:1036BC002822000E2922000E2A221A50160261001E
:1036CC00CCF32BF56100D0F32CF52B501C6E2C5049
:1036DC001D6E1E6A1F6A1EC51FF51DC51EF51CC575
:1036EC001DF51C6A1C5027261D5028221E5029220D
:1036FC001F502A2222C51CF523C51DF524C51EF515
:10370C0025C51FF5190E90EF1BF0D8901F321E32F5
:10371C001D321C32E82E8BEF1BF01C5027261D503F
:10372C0028221E5029221F502A2224C525F523C5E4
:10373C0024F522C523F5226A215026C51CF51D6AE5
:10374C001C26000E1D22820E1C242B6EFF0E1D202B
:10375C002C6EC6EF1BF0D8902736283629362A3621
:10376C0025AEBBEF1BF0BDEF1BF0BEEF1BF02780AF
:10377C00D89022362336243625362B06D8A02C0694
:10378C0029AECBEF1BF0CDEF1BF0B1EF1BF0000E11
:10379C00216E25AED4EF1BF0D6EF1BF0FAEF1BF029
:1037AC00FF0E22141C6EFF0E23141D6EFF0E24142C
:1037BC001E6E7F0E25141F6E1C501D101E101F1028
:1037CC00D8B4EBEF1BF0EDEF1BF0F1EF1BF0010E9B
:1037DC00216EFAEF1BF027A0F6EF1BF0F8EF1BF0B1
:1037EC00FAEF1BF0EDEF1BF02150D8B400EF1CF0FA
:1037FC0002EF1CF026EF1CF0010E2726000E2822EB
:10380C0029222A222AA00DEF1CF00FEF1CF026EF24
:10381C001CF027C51CF528C51DF529C51EF52AC5A4
:10382C001FF51F341F321E321D321C321CC527F5EA
:10383C001DC528F51EC529F51FC52AF52B4A2C2AAE
:10384C002CBE31EF1CF02C5008E12B28D8A031EF06
:10385C001CF033EF1CF03DEF1CF0000E276E000E39
:10386C00286E800E296E7F0E2A6E6BEF1CF02CBE1C
:10387C004AEF1CF02C5006E12B04D8B048EF1CF09A
:10388C004AEF1CF056EF1CF0000E276E000E286E4F
:10389C00000E296E000E2A6E000E206E6BEF1CF0CF
:1038AC002BC526F5FF0E2716FF0E28167F0E2916A0
:1038BC00000E2A1626A065EF1CF067EF1CF068EFCF
:1038CC001CF0298ED89026302A6E20502A1227C53B
:1038DC0014F528C515F529C516F52AC517F51200D6
:1038EC007CC514F57DC515F57EC516F57FC517F598
:1038FC007CC518F57DC519F57EC51AF57FC51BF578
:10390C004FEC1AF014C598F515C599F516C59AF52E
:10391C0017C59BF598C514F599C515F59AC516F5F7
:10392C009BC517F598C518F599C519F59AC51AF5DB
:10393C009BC51BF54FEC1AF014C584F515C585F520
:10394C0016C586F517C587F53C0E186E6C0E196EEC
:10395C00360E1A6E360E1B6E98C514F599C515F5F4
:10396C009AC516F59BC517F54FEC1AF014C52DF535
:10397C0015C52EF516C52FF517C530F5CF0E316EC2
:10398C00070E326E500E336EB90E346EEFEC17F02C
:10399C002DC580F52EC581F52FC582F530C583F573
:1039AC0098C514F599C515F59AC516F59BC517F567
:1039BC007CC518F57DC519F57EC51AF57FC51BF5B7
:1039CC004FEC1AF014C594F515C595F516C596F57A
:1039DC0017C597F5AB0E316EAA0E326E2A0E336EEA
:1039EC00BE0E346E840E186E880E196E080E1A6E8A
:1039FC003C0E1B6E98C514F599C515F59AC516F5B0
:103A0C009BC517F54FEC1AF014C52DF515C52EF501
:103A1C0016C52FF517C530F5EFEC17F02DC588F549
:103A2C002EC589F52FC58AF530C58BF584C518F5DB
:103A3C0085C519F586C51AF587C51BF594C514F50A
:103A4C0095C515F596C516F597C517F54FEC1AF0F3
:103A5C0014C58CF515C58DF516C58EF517C58FF5E6
:103A6C007CC531F57DC532F57EC533F57FC534F5A2
:103A7C0094C518F595C519F596C51AF597C51BF596
:103A8C0088C514F589C515F58AC516F58BC517F5C6
:103A9C004FEC1AF014C52DF515C52EF516C52FF5DE
:103AAC0017C530F5EFEC17F02DC590F52EC591F537
:103ABC002FC592F530C593F590C52DF591C52EF512
:103ACC0092C52FF593C530F580C518F581C519F54C
:103ADC0082C51AF583C51BF58CC514F58DC515F576
:103AEC008EC516F58FC517F54FEC1AF014C531F5C8
:103AFC0015C532F516C533F517C534F5EFEC17F0CF
:103B0C002DC57CF52EC57DF52FC57EF530C57FF511
:103B1C0012003DC514F53EC515F53FC516F540C55B
:103B2C0017F53DC518F53EC519F53FC51AF540C545
:103B3C001BF54FEC1AF014C574F515C575F516C5C3
:103B4C0076F517C577F574C514F575C515F576C5F5
:103B5C0016F577C517F574C518F575C519F576C53D
:103B6C001AF577C51BF54FEC1AF014C570F515C591
:103B7C0071F516C572F517C573F5170E186E9A0EFA
:103B8C00196ECC0E1A6E370E1B6E74C514F575C5F6
:103B9C0015F576C516F577C517F54FEC1AF014C563
:103BAC002DF515C52EF516C52FF517C530F53F0E9D
:103BBC00316E040E326EB60E336EBA0E346EEFECFE
:103BCC0017F02DC560F52EC561F52FC562F530C512
:103BDC0063F5000E316E000E326E800E336E3F0EAA
:103BEC00346E000E186E000E196E000E1A6EBF0E9B
:103BFC001B6E74C514F575C515F576C516F577C528
:103C0C0017F54FEC1AF014C52DF515C52EF516C584
:103C1C002FF517C530F5EFEC17F02DC564F52EC553
:103C2C0065F52FC566F530C567F574C518F575C50E
:103C3C0019F576C51AF577C51BF570C514F571C560
:103C4C0015F572C516F573C517F54FEC1AF014C5BA
:103C5C0068F515C569F516C56AF517C56BF59F0EA0
:103C6C00186EAA0E196E2A0E1A6E3D0E1B6E70C5BA
:103C7C0014F571C515F572C516F573C517F54FEC2E
:103C8C001AF014C531F515C532F516C533F517C53F
:103C9C0034F564C52DF565C52EF566C52FF567C5DC
:103CAC0030F5EFEC17F02DC56CF52EC56DF52FC565
:103CBC006EF530C56FF56CC52DF56DC52EF56EC561
:103CCC002FF56FC530F560C518F561C519F562C5DE
:103CDC001AF563C51BF568C514F569C515F56AC5F4
:103CEC0016F56BC517F54FEC1AF014C531F515C563
:103CFC0032F516C533F517C534F5EFEC17F02DC5B5
:103D0C003DF52EC53EF52FC53FF530C540F51200EB
:103D1C000E6E0E50D8B495EF1EF097EF1EF0B9EF63
:103D2C001EF009BE9EEF1EF09CEF1EF0B9EF1EF0C8
:103D3C0006C50AF507C50BF508C50CF509C50DF543
:103D4C000A1E0B1E0C1E0D1E0A2A000E0B220C2224
:103D5C000D220AC510F50BC511F50CC512F50DC5D4
:103D6C0013F5C1EF1EF006C510F507C511F508C512
:103D7C0012F509C513F50650071008100910D8A440
:103D8C00CAEF1EF0CCEF1EF0D6EF1EF0000E066E42
:103D9C00000E076E000E086E000E096E67EF1FF026
:103DAC00960E0F6EE0EF1EF00F2AD89013321232DF
:103DBC0011321032000E10140A6E000E11140B6E1C
:103DCC00000E12140C6EFE0E13140D6E0A500B1016
:103DDC000C100D10D8A4F5EF1EF0F7EF1EF0DAEF73
:103DEC001EF005EF1FF00F2A010E1026000E1122F7
:103DFC0012221322D8901332123211321032000ECA
:103E0C0010140A6E000E11140B6E000E12140C6EB0
:103E1C00FF0E13140D6E0A500B100C100D10D8A4BD
:103E2C001AEF1FF01CEF1FF0F9EF1EF024EF1FF03C
:103E3C000F06D890103611361236133612BE29EFF3
:103E4C001FF02BEF1FF033EF1FF0020E0F6031EF5E
:103E5C001FF033EF1FF01EEF1FF00FB038EF1FF005
:103E6C003AEF1FF03BEF1FF0129ED8900F320FC5A8
:103E7C000AF50B6A0C6A0D6A0AC50DF50C6A0B6A19
:103E8C000A6A0A5010120B5011120C5012120D50DB
:103E9C0013120E50D8B455EF1FF057EF1FF05FEF11
:103EAC001FF009BE5EEF1FF05CEF1FF05FEF1FF01D
:103EBC00138E10C506F511C507F512C508F513C507
:103ECC0009F5120090EC22F0C386000E80EC20F075
:103EDC00D68EC396000E0501D26F390E186EB40E35
:103EEC00196E480E1A6E3D0E1B6ED251066E076A85
:103EFC00086A096A010E8EEC1EF006C514F507C59A
:103F0C0015F508C516F509C517F54FEC1AF014C5CB
:103F1C00C2F515C5C3F516C5C4F517C5C5F5C2C59B
:103F2C00A0F5C3C5A1F5C4C5A2F5C5C5A3F5A6ECFE
:103F3C0012F0A0C5C6F5A1C5C7F5A2C5C8F5A3C5A5
:103F4C00C9F5000E316EE00E326EFF0E336E440E6C
:103F5C00346E000E186EE00E196EFF0E1A6E440EC3
:103F6C001B6EC6C514F5C7C515F5C8C516F5C9C56C
:103F7C0017F54FEC1AF014C52DF515C52EF516C511
:103F8C002FF517C530F5EFEC17F02DC53DF52EC507
:103F9C003EF52FC53FF530C540F5FDEC1FF0050192
:103FAC00D251020D000EF324D96E060EF420DA6EF7
:103FBC006100F4F4DEF46100F8F4DDF4D22B7F0E32
:103FCC00D265EBEF1FF0EDEF1FF073EF1FF0C38620
:103FDC00000EBAEC22F06E0E066E430E076E000E4B
:103FEC00086EC2EC22F0F9EF1FF00DEF00F03F3439
:103FFC004034466E4650D8A406EF20F008EF20F06F
:10400C0012EF20F0000E3D6E000E3E6E000E3F6E65
:10401C00000E406E7FEF20F03DC541F53EC542F5E8
:10402C003FC543F540C544F5200E22EF20F0D89053
:10403C004432433242324132E82E1DEF20F04150DF
:10404C00456E3F8EFF0E3D16FF0E3E16FF0E3F16C1
:10405C00000E4016960E465E46BE39EF20F037EF46
:10406C0020F04FEF20F04650800A970FD8B041EF68
:10407C0020F043EF20F045EF20F008EF20F0D8902F
:10408C0040323F323E323D32463E45EF20F067EF44
:10409C0020F01F0E466455EF20F057EF20F05FEF35
:1040AC0020F008EF20F0D8903D363E363F364036B3
:1040BC0046064650D8A465EF20F067EF20F059EF84
:1040CC0020F04550D8B46DEF20F06FEF20F077EF73
:1040DC0020F0401E3F1E3E1E3D6C000E3E223F2235
:1040EC0040223DC53DF53EC53EF53FC53FF540C5BB
:1040FC0040F51200076E000184BF87EF20F089EFB6
:10410C0020F0EAEF20F00750050D010EF324F66EB7
:10411C00250EF420F76EF86A000EF8220800F5C49C
:10412C0084F00750050D010EF326000EF422010E4B
:10413C00F324F66E250EF420F76EF86A000EF822C2
:10414C000800F5C485F00750050D020EF326000E8D
:10415C00F422010EF324F66E250EF420F76EF86AA5
:10416C00000EF8220800F5500309866F0750050D64
:10417C00030EF326000EF422010EF324F66E250E28
:10418C00F420F76EF86A000EF8220800F5C489F0E6
:10419C000750050D040EF326000EF422010EF32435
:1041AC00F66E250EF420F76EF86A000EF822080061
:1041BC006100D4F306F5063A06460646C8500618C2
:1041CC00BF0B0618C86E848F1200000EC26E000E54
:1041DC00C16E000EBE6E000EC36E000EBF6E000EE2
:1041EC00C06E070ECA6EF70ECB6EC668C768AF0EF0
:1041FC00C86E7F0EC96E7F0E0401186F8F0E106F84
:10420C000869070E206FF70E286F0069000E196FF2
:10421C00000E296F000E216F000E096F000E016F4A
:10422C00000E116F000E0201896F000E886F000ED8
:10423C00876F000E866F000E0401226F000E2A6F2E
:10424C00000E026F000E0A6F000E126F000E1A6F36
:10425C0003690B6913691B69070E236F2B690469CA
:10426C000C6914691C690F0E246F2C69160E02015F
:10427C006A6F320E156F310E176F150E6B6F1200C1
:10428C00000E0301D96F000EDA6F000EDB6F000E0B
:10429C00DC6F000EDF6F000EE06F000EE56F000E9E
:1042AC00E76F000EEC6F000EEE6F000EEF6F000E5E
:1042BC00F06F000EF16F000EF26F000EF46F100E27
:1042CC00F56F000EF66F000EF76F000EF86F000E14
:1042DC00F96F000EFA6F900EF36F1200000E411A78
:1042EC00000E421A000E431A800E441A3DC52DF5DD
:1042FC003EC52EF53FC52FF540C530F541C531F50E
:10430C0042C532F543C533F544C534F5EFEC17F02F
:10431C002DC53DF52EC53EF52FC53FF530C540F5F5
:10432C00120001EE00F210EE00F1EE6AE550E150E1
:10433C00FCE1E250FAE101EECAF1090EEE6AE80680
:10434C00FDE1546A536A526A516A506A4F6A040119
:10435C00080E5D6F000E5E6F000E5F6F000168EF60
:10436C001FF05350020D000EF324D96E060EF420EC
:10437C00DA6E610078F351F5610074F352F5532A4B
:10438C0051C502F552C503F580EC22F07F0E536443
:10439C00D2EF21F0D4EF21F0D6EF21F0000E536EC6
:1043AC0012000501785179117A117B11D8B4E1EF23
:1043BC0021F0E3EF21F0EBEF21F0000E781B000E63
:1043CC00791B000E7A1B800E7B1B78C578F579C59E
:1043DC0079F57AC57AF57BC57BF512006100E8F3B7
:1043EC0004F56100ECF305F5A1A6FFEF21F001EF58
:1043FC0022F00AEF22F0B1A606EF22F008EF22F02D
:10440C000AEF22F0C9EC22F0610014F4FBF4610015
:10441C0010F4FAF41100CAC50AF5CBC50BF5CCC5DE
:10442C000CF5CDC50DF506C50AF507C50BF508C588
:10443C000CF509C50DF50D9E0AC506F50BC507F55E
:10444C000CC508F50DC509F51200010E0301266F08
:10445C00000E256F000E276F9B0E236F000E226F30
:10446C00B196A1869E0E066E450E076E000E086E66
:10447C00C2EC22F0B00E0301246F12000501D351DF
:10448C00D411D511D8B44DEF22F04FEF22F05CEFE0
:10449C0022F002D85CEF22F00500FA6ED351FD6ECB
:1044AC00D451FE6ED551FF6EFA5012001200000E60
:1044BC000001606F000E616F000E636F000E646F81
:1044CC00000E656F000E666F000E676F000E686F52
:1044DC001200016E010E0001826F610004F481F084
:1044EC00B1A07BEF22F07DEF22F076EF22F00001FD
:1044FC0080511200C19E03500F0B546E300E54129B
:10450C0054506FEC22F002C554F554506FEC22F06D
:10451C00C18E1200CDEC22F05DEC22F0EBEC20F021
:10452C009FEC22F046EC21F02BEC22F0ADEC22F0CB
:10453C001200600E0001AD6F000EAF6F000EB36F76
:10454C00080EB16F000EB06F000EAC6F1200020EB1
:10455C000001846F400E856F000E866F000E8C6F0D
:10456C00030E896FC89C1200066E610018F4ECF300
:10457C000301F38FF381120006C5D3F507C5D4F5FB
:10458C0008C5D5F51200B19644EC22F01200D69A6B
:04459C0012001200F7
:020000040020DA
:10000000FF0FFF0FFF0FFF0FFF0FFF0FFF0FFF0F80
:10001000FF0FFF0FFF0FFF0FFF0FFF0FFF0FFF0F70
:10002000FF0FFF0FFF0FFF0FFF0FFF0FFF0FFF0F60
:10003000FF0FFF0FFF0FFF0FFF0FFF0FFF0FFF0F50
:020000040030CA
:0A0000008CFFF7FF9FFFFFFFFFFFDB
:00000001FF
